:100000000C9453000C9470000C9470000C947000CD
:100010000C9470000C9470000C9470000C947000A0
:100020000C9470000C9470000C9470000C94700090
:100030000C9470000C9470000C9470000C94700080
:100040000C9470000C9470000C9474030C949A033C
:100050000C9470000C9470000C9470000C94700060
:100060000C94D9040C947000220D0A00556E726530
:10007000636F676E697A656420436F6D6D616E644E
:1000800020220007001B5B324A001B5B4B00303113
:1000900032333435363738394142434445461027E8
:1000A000E80364000A0011241FBECFEFD8E0DEBFD2
:1000B000CDBF14E0A0E0B1E0ECEFFEE002C005909F
:1000C0000D92AA3DB107D9F716E0AAEDB4E001C040
:1000D0001D92A933B107E1F70E940E030C947C072F
:1000E0000C9400000F931F93CF93DF930E94CF05D2
:1000F000EC0190934605809345058881803361F437
:10010000898190E00E9469078837910529F4229639
:10011000D0934605C0934505C0914505D09146054D
:100120001881112309F440C0FE0101900020E9F775
:100130003197EC1BFD0B3397B8F5812F90E00E94AF
:100140005E07892B89F1812F90E00E9471078A3325
:1001500091051CF0182F175301C01053109341053F
:10016000FE0101900020E9F73297EC17FD07D1F06E
:10017000898190E00E945E07892BB1F0012F0295E2
:10018000007F009341051981812F90E00E94710743
:100190008A33910514F0875302C0812F8053800F5A
:1001A0008093410581E001C080E0DF91CF911F91F4
:1001B0000F9108950E947200882369F480E091E015
:1001C0000E940D0780914505909146050E940D07FC
:1001D00086E191E01CC080914105813FA0F081E45F
:1001E00091E00E940D0780914505909146050E947F
:1001F0000D0782E591E00E940D0780EF0E94460600
:100200008EE591E004C0882361F482E691E00E94CB
:100210000D078DE291E00E940D070E94F80680E034
:1002200008958093430581E008950F931F93CF9322
:10023000DF93182F0E94D60480934205873048F43C
:10024000E82FF0E0EE0FFF1FE054FB4F808191811B
:1002500002C088E891E00E940D078DE891E00E94BD
:100260000D07809142050E94460680E991E00E94B8
:100270000D07112381F180914205882361F584E9FE
:1002800091E00E940D0708E415E0C0E0D0E01BC03B
:100290008CE991E00E940D078C2F0E94460681EAAE
:1002A00091E00E940D07F80180810E94460686EACF
:1002B00091E00E940D07F80181918F010E942906AB
:1002C0000E94F80621968091430590E0C817D9074F
:1002D000FCF20E94F806DF91CF911F910F910895D3
:1002E000CF93DF930E94CA050E94CF05EC016BEA11
:1002F00071E00E946B04882319F10E947200882328
:1003000009F40FC180914105809338060E94DA00FC
:10031000882309F480C188E495E06FEF70E040EF36
:1003200050E00E941A07809138066091430548E426
:1003300055E00E94BB040E94CE048823E1F73FC130
:10034000CE0167EC71E00E946B04882309F446C07B
:100350000E947200882309F4E4C0809141058093D3
:1003600038061092430510C00E947200882381F065
:1003700080914305E82FF0E0E85BFA4F909141054A
:1003800090838F5F8093430580914305803F60F3A6
:100390000E9472008823A1F089EC91E00E940D0771
:1003A00080914505909146050E940D0782E591E0F8
:1003B0000E940D0780EF0E9446068EE591E0C8C0BE
:1003C000809138066091430548E455E020E00E94A2
:1003D000A7040E94CE048823E1F7F2C0CE0169EDA4
:1003E00071E00E946B04882309F448C0109247050D
:1003F0008BED91E00E940D071092380632C061E04B
:1004000048E455E00E94BB040E94CE048823E1F733
:100410000E94D604809342058230F1F08091380624
:100420000E9446068AEE91E00E940D07E091420587
:10043000F0E0EE0FFF1FE054FB4F808191810E949E
:100440000D070E94F80680914205823029F08091C4
:1004500047058F5F80934705809138068F5F8093B3
:1004600038068091380687FFCACF8091470590E013
:1004700060E00E9460068FEE91E0C9C0CE016CEF93
:1004800071E00E946B04882309F43FC00E9472004F
:10049000882309F446C080914105809338060E9464
:1004A0007200882309F448C0809141058093440577
:1004B0000E94DA00882309F4AEC088E495E06FEF6B
:1004C00070E040EF50E00E941A078091380661E02A
:1004D00044E455E020E00E94A7040E94CE04882353
:1004E000E1F781E192E00E940D0780E00E94150192
:1004F000809138066091430548E455E00E94BB04B2
:100500000E94CE048823E1F756C0CE016CEF71E063
:100510000E946B04882309F456C00E94720088234D
:1005200019F48DEA91E00AC0809141058093380664
:100530000E947200882379F48EEF91E00E940D07EB
:1005400080914505909146050E940D0786E191E056
:100550000E940D075AC080914105809344050E9476
:10056000DA00882309F457C088E495E06FEF70E063
:1005700040EF50E00E941A078091380661E044E4A1
:1005800055E021E00E94A7040E94CE048823E1F7F1
:1005900081E192E00E940D0780E00E9415018091A8
:1005A00038066091430548E455E00E94BB040E9470
:1005B000CE048823E1F789E192E00E940D0781E0F3
:1005C0000E94150128C0CE0161E272E00E946B0416
:1005D000882339F4CE0163E272E00E946B04882321
:1005E00029F00E94F80685E292E011C083E890E0CD
:1005F0000E94FF068CE690E00E94FF06CE010E945A
:100600000D0788E690E00E94FF068DE291E00E94CF
:100610000D070E94F806DF91CF9108950E94C30351
:1006200084E66091550441E00E947305789485E862
:1006300090E00E94FF0689E394E00E940D0783E4A6
:1006400094E00E940D070E94F8060E94F8060E949E
:100650005D040E944E030E94EC03FBCF282F809183
:10066000C1008F7D8093C100E0918106EF5F9E2FD6
:100670009F73E15080918206981711F490E007C0B3
:10068000F0E0E75CF94F20879093810691E080913C
:10069000C10080628093C100892F08958091C100BC
:1006A0008F778093C100909184068091830689178B
:1006B00011F4E0E009C0E92FF0E0E75CF94FE081D8
:1006C0009F5F9770909384068091C10080688093AB
:1006D000C1008E2F089520E09091810680918206BE
:1006E000981321E0822F08951F920F920FB60F9258
:1006F00011242F938F939F93EF93FF932091C60024
:10070000E0918306EF5F9E2F9770E1508091840601
:10071000981731F0F0E0E75CF94F2083909383065F
:10072000FF91EF919F918F912F910F900FBE0F909E
:100730001F9018951F920F920FB60F9211248F934E
:100740009F93EF93FF939091820680918106891782
:1007500061F0E92FF0E0E75CF94F80858093C600F7
:100760009F5F9F739093820605C08091C1008F7D2B
:100770008093C100FF91EF919F918F910F900FBED9
:100780000F901F9018958CE4E9E3F6E0DF011D92CD
:100790008A95E9F7E4E6F0E080818D7F808310920E
:1007A000C50083E38093C400E0ECF0E080818D7F9E
:1007B000808386E08093C20088E98093C1005098CE
:1007C000589A089508958AE890E00E94FF068EECFA
:1007D00094E00E940D0708950F931F93DF93CF932A
:1007E00000D000D000D0CDB7DEB7082F882309F4A1
:1007F00059C08830C9F4E0913F05F0914005309729
:1008000009F450C03197F0934005E0933F05E6525C
:10081000FB4F1082898380E28A830B831C82CE0186
:1008200001960E940D073EC08D3029F489838AE02D
:100830008A831B8206C08A3019F089831A8201C01C
:100840001982CE0101960E940D070D3041F00B3147
:10085000B9F48AED94E064ED74E00E942C070AED8F
:1008600014E0C8010E94700185E6F80111928A9592
:10087000E9F71092400510923F050E94E30312C071
:100880000A3081F080913F059091400584369105B2
:100890004CF4FC01E652FB4F008301969093400517
:1008A00080933F0526960FB6F894DEBF0FBECDBFEE
:1008B000CF91DF911F910F91089585E6EAEDF4E065
:1008C000DF011D928A95E9F71092400510923F05CD
:1008D0000E94E3030895DF92EF92FF920F931F931C
:1008E000CF93DF937C01EB0121C0D02E103231F188
:1008F000812F90E00E945707892B29F0812F90E0EB
:100900000E947107182F802F90E00E945707892BB3
:1009100029F0802F90E00E947107D82E1D1511F04C
:1009200080E00DC00894E11CF11C2196F7011081B4
:1009300008811123D1F680E0002309F481E0DF91E2
:10094000CF911F910F91FF90EF90DF900895880F46
:1009500080938506609386065093880640938706A9
:1009600081E080938A0620938906ECEBF0E0808199
:10097000806A80830895880F8160809385066093E4
:100980008606509388064093870681E080938A0606
:10099000ECEBF0E08081806A8083089590E08091A4
:1009A0008A06813009F491E0892F089580918A06A2
:1009B00008951F920F920FB60F9211248F939F9359
:1009C000EF93FF938091B9008C7F883271F1893267
:1009D00088F4803111F1813138F4882309F472C030
:1009E000883009F077C019C08831F9F0803209F0F9
:1009F00071C036C08034E1F1813430F4803391F13C
:100A0000883309F067C030C0803509F440C08835AC
:100A1000F1F1883409F05EC023C08091850680938F
:100A2000BB008091BC008F7D53C0909186069923B6
:100A300041F410928A0680918906882309F04AC001
:100A400044C0E0918706F091880681918093BB00B5
:100A5000F0938806E093870691509093860613C022
:100A600082E031C083E02FC085E080938A060BC00E
:100A700080918606882319F18130D9F08091BC00DD
:100A800080648093BC008091BC00806821C080910C
:100A9000BB00E0918706F09188068193F093880669
:100AA000E093870680918606815080938606813088
:100AB00021F48091BC008F7BE4CF882321F7109232
:100AC0008A0603C086E080938A068091BC00806914
:100AD0008093BC00FF91EF919F918F910F900FBE7B
:100AE0000F901F9018951F93282F162F86E0E5E88A
:100AF000F6E0DF011D928A95E9F7809164008F7717
:100B000080936400442331F085B78F7E85BF459A7A
:100B1000449A02C0459844988091B9008E7F809392
:100B2000B9008091B9008D7F8093B90030E088EEE4
:100B300093E0A901489F9001499F300D589F300DC7
:100B40001124442737FD4095542F60E074E284EF70
:100B500090E00E943307205130404040504056956D
:100B60004795379527952093B80010928A06809173
:100B7000BC0084608093BC008091BC008160809345
:100B8000BC001093BA008091BC008F7B8093BC00A6
:100B90001F91089590938C0680938B060895CF92B1
:100BA000DF92FF920F931F93CF93DF938AE0EDE8DC
:100BB000F6E0DF011D928A95E9F705C02196D093F2
:100BC0008C06C0938B06C0918B06D0918C066881F1
:100BD000662389F086ED94E070E00E94210700977B
:100BE00069F709C0F801F1928F012196D0938C0624
:100BF000C0938B0603C00DE816E06801C0918B0618
:100C0000D0918C06F880FF2089F086ED94E06F2D5E
:100C100070E00E942107009749F4F601019000203E
:100C2000E9F73197ED58F6403A97E0F28DE896E013
:100C3000DF91CF911F910F91FF90DF90CF9008959A
:100C40001F93182F812F0E942E038823D9F31F9101
:100C500008950F931F93CF93DF93182FC0E0D0E038
:100C600001E3812F8095881F8827881F902F981B6C
:100C7000892F0E9420062196C830D10511F0110F4E
:100C8000F0CFDF91CF911F910F9108951F93CF93D4
:100C9000DF93182F82958F70CEE8D0E0FE01E80F29
:100CA000F11DE4918E2F0E9420061F70C10FD11DEF
:100CB000FE0184910E942006DF91CF911F9108953B
:100CC0005F926F927F928F929F92AF92BF92CF92DC
:100CD000DF92EF92FF920F931F93CF93DF933C012C
:100CE000162F65361CF460E2562E03C0145650E3EE
:100CF000552E4EE9A42E40E0B42E00E035E0E32E60
:100D0000F12CF5018591949120E3922E03C0681A8D
:100D1000790A939468167906D0F780E3981619F447
:100D2000002309F526C00023F1F41116E4F4812F05
:100D3000992787FD90958E159F050CF41E2DC0E018
:100D4000D0E0C12EDD24C7FCD09404C0852D0E94C4
:100D500020062196812E8C1AC6018C1B9D0BE8164D
:100D6000F906A4F301C0812E892D0E9420060F5F91
:100D7000182D82E090E0A80EB91E0894E108F10851
:100D800091E0E916F10409F0BCCF002341F41116FB
:100D900024F005C0852D0E9420061150D9F7862D1C
:100DA000805D0E94200617FF13C004C0852D0E949D
:100DB000200608C0812F992787FD9095CC27DD2735
:100DC000C81BD90B0F5F802F90E08C179D0774F321
:100DD000DF91CF911F910F91FF90EF90DF90CF9017
:100DE000BF90AF909F908F907F906F905F9008958D
:100DF0008DE00E9420068AE00E9420060895CF938D
:100E0000DF93EC0102C00E942006FE01219684912E
:100E10008823C9F7DF91CF910895CF93DF93EC0139
:100E200003C021960E94200688818823D1F7DF9194
:100E3000CF910895DC0101C06D9341505040E0F71F
:100E40000895FC018191861721F08823D9F799270D
:100E500008953197CF010895FB01DC0101900D92B7
:100E60000020E1F70895A1E21A2EAA1BBB1BFD0189
:100E70000DC0AA1FBB1FEE1FFF1FA217B307E40779
:100E8000F50720F0A21BB30BE40BF50B661F771FD1
:100E9000881F991F1A9469F76095709580959095B1
:100EA0009B01AC01BD01CF01089585FD22C0806288
:100EB00091111FC081568A51E0F70895911119C010
:100EC00080538A5028F0865C806281568650B8F73D
:100ED00008959111089581548A5108F4805E855ACD
:100EE00008959111089581568A5108F480528558C9
:0C0EF0000895992788270895F894FFCFF3
:100EFC00556E7265636F676E697A6564206E4279B0
:100F0C00746573202800292C206D75737420322091
:100F1C006865782063686172732E0D0A00547970CD
:100F2C006520273F2720666F722068656C700D0A5C
:100F3C00006E427974657320746F6F20626967204C
:100F4C002800292C206D757374203C3D20002E0D3B
:100F5C000A006E42797465732063616E6E6F742043
:100F6C006265207A65726F21204361757365732009
:100F7C0068616E67210D0A003F3F3F3F002028004B
:100F8C00290D0A00446174613A0D0A002020307862
:100F9C00003A2030780020203062005200556E72EA
:100FAC0065636F676E697A656420736C6176652022
:100FBC00616464722028005700546F6F206D756354
:100FCC006820646174612028005300416464723AA3
:100FDC0020526573756C740D0A0020203A20002095
:100FEC00726573706F6E7365730D0A004400556EF5
:100FFC007265636F676E697A656420726567202815
:10100C000057726974653A2000526561643A202079
:10101C000048003F0052203C736C6176653E203CDA
:10102C006E42797465733E202020202020202020E1
:10103C0020202020202020526561642020646174CF
:10104C00612062797465732066726F6D20736C61B8
:10105C0076650D0A57203C736C6176653E203C42E8
:10106C00797465313E205B3C42797465323E5D207B
:10107C002E2E2E20202057726974652064617461B5
:10108C0020627974657320746F202020736C6176F4
:10109C00650D0A53202020202020202020202020F5
:1010AC002020202020202020202020202020202034
:1010BC0020202020205363616E20666F7220736C99
:1010CC0061766573206F6E206275730D0A44203C47
:1010DC00736C6176653E203C7265673E203C6E42C7
:1010EC00797465733E20202020202020202020446D
:1010FC00756D7020736C61766520726567697374A9
:10110C00657273207374617274696E6720617420E8
:10111C003C7265673E0D0A47203C736C6176653EF8
:10112C00203C7265673E203C6E42797465733E20AC
:10113C0020202020202020202044756D7020736CEE
:10114C006176652072656769737465727320757357
:10115C00696E672072657065617465642073746173
:10116C0072740D0A0D0A48202020202020202020F7
:10117C00202053686F7720746869732068656C70E1
:10118C002070616E656C0D0A3F20202020202020ED
:10119C002020202053686F7720746869732068655D
:1011AC006C702070616E656C0D0A0D0A416C6C20C0
:1011BC0076616C756573206865782C206C6561644C
:1011CC00203078206D6179206265206F6D697474B0
:1011DC0065642E0D0A4765742020636F6D6D616E1A
:1011EC006420757365732072657065617465642025
:1011FC0073746172742E0D0A44756D7020636F6D7B
:10120C006D616E6420757365732066756C6C2077E8
:10121C007269746520666F6C6C6F77656420627997
:10122C0020726561642E0D0A0049324320434D44FF
:10123C000D0A005479706520273F2720666F7220B5
:10124C0068656C7000314932435F434F4D504C45DB
:10125C005445004932435F574F524B494E47004962
:10126C0032435F4E4F5F534C4156455F41434B00F9
:10127C004932435F534C4156455F444154415F4EA4
:10128C0041434B004932435F5245505F53544152E6
:10129C0054004932435F4D545F4152425F4C4F53AF
:1012AC0054004932435F4255535F4552524F5200EE
:1012BC00560463046F0480049404A204B204436DC6
:0A12CC00643E20001B002009000012
:00000001FF
